:0400000080EF00F09D
:100018004D80D8CF01F0E8CF02F0E0CF03F0FACF5F
:1000280004F0FBCF05F0E9CF06F0EACF07F0E1CF07
:1000380008F0E2CF09F0D9CF0AF0DACF0BF0F3CF0E
:100048000CF0F4CF0DF0F6CF0EF0F7CF0FF0F8CF9D
:1000580010F0F5CF11F0F2A40ED06D0ED76E750E1C
:10006800D66EF294372A140E3718D8A404D0362A3C
:10007800000E376E2E2A9EAA1BD09EAAFED73A0ED5
:100088003124D96E000E3220DA6EAECFDFFF314A4E
:10009800322A32BE0DD0325004E1070E315CD8A0AE
:1000A80007D09E9A000E326E000E316E010E386E29
:1000B80011C0F5FF10C0F8FF0FC0F7FF0EC0F6FF24
:1000C8000DC0F4FF0CC0F3FF0BC0DAFF0AC0D9FF64
:1000D80009C0E2FF08C0E1FF07C0EAFF06C0E9FF68
:1000E80005C0FBFF04C0FAFF03C0E0FF02C0E8FF41
:0C00F80001C0D8FF4D901000A7EF09F0E8
:100800000001000A006400E80310275B256320252F
:10081000632025632025632025632025632025632D
:100820005D00434F4E53554D4F20494E5354414E5A
:1008300054414E454F3A2000486F726172696F20F3
:100840003A2025643A25643A25640020202020209F
:10085000202020202020202020202000434F4E5305
:10086000554D4F204D454E53414C3A2000434F4E7D
:1008700053554D4F20414E55414C3A2000434F4E69
:100880004649472E2052454C4F47494F00486F720A
:100890006172696F203A2025643A256400484F52FE
:1008A0004152494F204C4947415200434F4E46491F
:1008B000472E2053454D2E00484F524152494F205C
:1008C0004445534C00202020202020202025642057
:1008D0005700446566616C746F73730074656C6176
:0508E000202569000065
:1008E600F5D1D2EC0BF0860E00019D6F000E0001D3
:1008F6009E6F0B0E00019F6F080E0001A06FB1C026
:10090600A1F00001A26BB2C0A3F00001A46BB3C0BA
:10091600A5F00001A66BB4C0A7F00001A86BB5C096
:10092600A9F00001AA6BB6C0ABF00001AC6BB7C072
:10093600ADF00001AE6B74EC07F0760E00019D6F12
:10094600000E00019E6F380E00019F6F080E000119
:10095600A06F2CC0A1F00001A26B2DC0A3F0000176
:10096600A46B2EC0A5F00001A66B74EC07F0860EF2
:10097600176E000E186E760E196E000E1A6EE5ECE6
:100986000BF01200D2EC0BF0860E00019D6F000EEC
:1009960000019E6F220E00019F6F080E0001A06FDE
:1009A60074EC07F0760E00019D6F000E00019E6F3D
:1009B600C50E00019F6F080E0001A06F4950040D7F
:1009C600000EF324D96E010EF420DA6EDECFA1F00C
:1009D600DDCFA2F074EC07F0860E176E000E186ECF
:1009E600760E196E000E1A6EE5EC0BF01200D2ECC4
:1009F6000BF0860E00019D6F000E00019E6F5C0ECF
:100A060000019F6F080E0001A06F74EC07F0760ED0
:100A160000019D6F000E00019E6FC50E00019F6FC5
:100A2600080E0001A06F4950040D000EF324D96E84
:100A3600010EF420DA6EDECFA1F0DDCFA2F074EC69
:100A460007F0860E176E000E186E760E196E000EE3
:100A56001A6EE5EC0BF01200D2EC0BF0860E0001DC
:100A66009D6F000E00019E6F6D0E00019F6F080EB8
:100A76000001A06F74EC07F0760E00019D6F000E6A
:100A860000019E6FC50E00019F6F080E0001A06F4A
:100A96004950040D000EF324D96E010EF420DA6ECF
:100AA600DECFA1F0DDCFA2F074EC07F0860E176E54
:100AB600000E186E760E196E000E1A6EE5EC0BF02F
:100AC6001200D2EC0BF0860E00019D6F000E0001A5
:100AD6009E6FAB0E00019F6F080E0001A06F74ECB5
:100AE60007F0760E00019D6F000E00019E6F0B0E43
:100AF60000019F6F080E0001A06FB1C0A1F00001B8
:100B0600A26BB2C0A3F00001A46BB3C0A5F00001B4
:100B1600A66BB4C0A7F00001A86BB5C0A9F0000190
:100B2600AA6BB6C0ABF00001AC6BB7C0ADF000016C
:100B3600AE6B74EC07F0860E176E000E186E760E0E
:100B4600196E000E1A6EE5EC0BF01200D2EC0BF0EB
:100B5600860E00019D6F000E00019E6F7D0E000146
:100B66009F6F080E0001A06F74EC07F0760E00016F
:100B76009D6F000E00019E6F8D0E00019F6F080E87
:100B86000001A06F2CC0A1F00001A26B2DC0A3F044
:100B96000001A46B74EC07F0860E176E000E186E3B
:100BA600760E196E000E1A6EE5EC0BF01200D2EC02
:100BB6000BF0860E00019D6F000E00019E6F9D0ECC
:100BC60000019F6F080E0001A06F74EC07F0760E0F
:100BD60000019D6F000E00019E6F8D0E00019F6F3C
:100BE600080E0001A06F2CC0A1F00001A26B2DC061
:100BF600A3F00001A46B74EC07F0860E176E000ECE
:100C0600186E760E196E000E1A6EE5EC0BF01200D9
:100C1600D2EC0BF0860E00019D6F000E00019E6F58
:100C2600B80E00019F6F080E0001A06F74EC07F06C
:100C3600760E00019D6F000E00019E6F8D0E000165
:100C46009F6F080E0001A06F2CC0A1F00001A26BDF
:100C56002DC0A3F00001A46B74EC07F0860E176E8E
:100C6600000E186E760E196E000E1A6EE5EC0BF07D
:100C76001200D2EC0BF0860E00019D6F000E0001F3
:100C86009E6FD20E00019F6F080E0001A06F74ECDC
:100C960007F0760E00019D6F000E00019E6FDC0EC0
:100CA60000019F6F080E0001A06F41C0A1F042C075
:100CB600A2F074EC07F0860E176E000E186E760E14
:100CC600196E000E1A6EE5EC0BF0120041C026F00C
:100CD60042C027F02750000AD8A4CBD72650010AD5
:100CE600D8B4FFD5030AD8B44DD6010AD8B47FD6F6
:100CF600070AD8B4B1D6010AD8B4E3D6030AD8B4E1
:100D060025D7010AD8B453D70F0AD8B481D7B1D79B
:100D1600DED0960E126E000E136E3A0E146E000E94
:100D2600156E14501510D8A4200E166E000E186EEF
:100D3600010E176EDEEC09F0970E126E000E136EA2
:100D46003B0E146E000E156E14501510D8A4200E0E
:100D5600166E000E186E010E176EDEEC09F04CD002
:100D6600980E126E000E136E4C0E146E000E156E5B
:100D760014501510D8A4200E166E000E186E010E13
:100D8600176EDEEC09F0990E126E000E136E4B0E06
:100D9600146E000E156E14501510D8A4200E166E83
:100DA600000E186E010E176EDEEC09F09A0E126E2A
:100DB600000E136E000E146E000E156E000E166EEB
:100DC600000E186E010E176EDEEC09F087D02CC0EF
:100DD60098F02DC099F02EC09AF080D049C098F0B6
:100DE60048C099F043C09AF079D047C098F046C001
:100DF60099F000019A6972D03B50300AD8B4B0D746
:100E0600010AD8B4E4D7030AD8B4E8D7010AD8B49B
:100E1600ECD764D0000E296E000E286E29BE06D0CF
:100E2600295047E1050E285CD8B043D0960E2824F9
:100E3600126E000E2920136E3A0E2824266E000E1E
:100E46002920276E26C014F027C015F0145015105F
:100E5600D8A4200E166E000E186E010E176EDEEC6C
:100E660009F0284A292ADAD73C50D00F4C6E3D505B
:100E7600D00F4B6E33D03C50D00F2C6E3D50D00F60
:100E86002D6E3E50D00F2E6E29D03C50D00F496E9D
:100E96003D50D00F486ED00E3E24436E446AFF0E7E
:100EA60044221CD03C50D00F476E3D50D00F466EAA
:100EB60015D03B50300AD8B4D7D7010AD8B4DBD7FF
:100EC600030AD8B4E2D7010AD8B4ECD707D03A500F
:100ED600310AD8B41ED7030AD8B49CD76AEC09F0F5
:100EE6001200A10E216E000E226EA7D0250E251827
:100EF600D8B405D011D000019D4B9E2B9ED0000E7C
:100F06001F6E11D021C0D9FF22C0DAFFDF50256E37
:100F1600020E2126000E22229DC0D9FF9EC0DAFFB6
:100F260025C0DFFFE8D79FC0F6FFA0C0F7FF00018E
:100F36009F4BA02BF86A0800F5CF25F02550000A34
:100F4600D8B489D0630AD8B4DDD7070AD8B403D099
:100F56000D0AD8A4E1D721C0D9FF22C0DAFFDECF1F
:100F660023F0DDCF24F0020E2126000E222224AE2D
:100F760006D0030E1F12236C241ED8B0242A010E9D
:100F8600256E050E2518D8B415D02550020D010E74
:100F9600F324F66E080EF420F76EF86A000EF822B7
:100FA6000900F550235C0900F5502458D8A002D05A
:100FB600252AE7D71FC01EF0030E1E16D8B409D087
:100FC6009DC0D9FF9EC0DAFF2D0EDF6E00019D4B3E
:100FD6009E2B25C020F02DD02050020D010EF324AB
:100FE600F66E080EF420F76EF86A000EF822090075
:100FF600F5CF14F00A00F5CF15F023C012F024C087
:1010060013F068EC0AF012C019F013C01AF0000EC3
:101016001C6E0A0E1B6E07EC0BF01950300F256E76
:101026009DC0D9FF9EC0DAFF25C0DFFF00019D4BA2
:101036009E2B20062028D8A4CFD79FC0F6FFA0C09D
:10104600F7FF00019F4BA02BF86A0800F5CF25F0AB
:101056002550D8A44BD79DC0D9FF9EC0DAFF000EFD
:10106600DF6E1200D59EF28AF294D59CD596D58075
:10107600D582D594D59A800ED76E000ED66ED58EB3
:10108600F28EF28C000E926E17EC0CF04D0EAF6ED7
:10109600900EAB6E200EAC6E949C948E9E9A9F9A88
:1010A6009D8AF28C000E2C6E000E2D6E000E2E6E9A
:1010B600000E0001B06F010EAF6F0001B0BF08D087
:1010C6000001B05137E11F0E0001AF5DD8B032D03C
:1010D600000E2A6E010E2B6ED8900001AF35D96E28
:1010E6000001B035DA6ED890D936DA362A50D926CC
:1010F6002B50DA22000EDE6E000EDD6EAFC02AF037
:10110600B0C02BF0D8902A362B36D8902A362B36FC
:10111600020E2A26000E2B22000E2A24D96E010E5C
:101126002B20DA6E000EDE6E000EDD6E0001AF4B78
:10113600B02BC3D73604D8A40CD0000E366EF8EC0C
:101146000BF03DEC0AF0BEEC0BF0E1EC0AF073ECB0
:1011560004F028EC0BF0EED71D681E68145015102D
:10116600D8A405D01D1C126E1E1C136E1200000E94
:101176001A6E12C0D9FF13C0DAFFDF50166E165072
:101186001B6E1C6A124A132A070E1A6401D028D055
:10119600010E1B14166E000E1C14176E010E1D1484
:1011A600186E000E1E14196E1650181A1750191ABA
:1011B60018501910D8B40CD0D8901E30176E1D30A8
:1011C600166E080E16181D6E840E17181E6E03D0A6
:1011D600D8901E321D321A2AD8901C321B32D4D710
:1011E6001406D8A0150614501510D8A4C0D71D1E75
:1011F6001E1E1DC01BF01EC01CF01BC016F01CC01E
:1012060017F017C016F0176A16501DC018F01EC04A
:1012160019F018C019F0186A18101D6E19501E6EB4
:101226001DC012F01EC013F01200176EF00E8116CC
:10123600F00E9316939C939A93988A9C8A9A8A980E
:101246004DEC0CF0300E66EC0BF0050E26EC0CF0B7
:10125600300E66EC0BF0010E26EC0CF0320E66EC4E
:101266000BF085EC0BF00009D8A4FBD785EC0BF04E
:101276000009D8A4FBD7175066EC0BF085EC0BF0F1
:101286000009D8A4FBD7080E66EC0BF085EC0BF032
:101296000009D8A4FBD70F0E66EC0BF085EC0BF01B
:1012A6000009D8A4FBD7010E66EC0BF085EC0BF019
:1012B6000009D8A4FBD7040E66EC0BF085EC0BF006
:1012C6000009D8A4FBD7800E91EC0AF012003A0E62
:1012D600126E000E136E000E156E050E146EAFEC38
:1012E60008F012C024F013C025F02550226E24C049
:1012F60023F03F0E126E000E136E22501F6E206AF0
:10130600216A1FC014F020C015F021C016F0000E8F
:10131600186E010E176EDEEC09F0400E126E000E0E
:10132600136E23501F6E206A216A1FC014F020C05E
:1013360015F021C016F0000E186E010E176EDEECC9
:1013460009F0030E386E12008E0EF66E180EF76E4A
:10135600000EF86E00EEB1F010EE0BF00900F5CFBE
:10136600EEFFE550E150FAE1820EF66E180EF76ECA
:10137600000EF86E00EE41F010EE0CF00900F5CF0D
:10138600EEFFE550E150FAE101EE00F0780EEE6A6C
:10139600E806FDE100EE60F03D0EEE6AE806FDE1CE
:1013A60000EE2CF0150EEE6AE806FDE14D904D922A
:1013B600000135EF08F014C019F015C01AF016C078
:1013C6001BF012C01CF013C01DF01DD019C0F6FF93
:1013D6001AC0F7FF1BC0F8FF1CC0D9FF1DC0DAFFFB
:1013E600F8BA03D00800F55005D0F6CFE9FFF7CFDD
:1013F600EAFFEF50DF6E010E1926000E1A22000ECC
:101406001B221C4A1D2A1706D8A018061728DEE13B
:101416001828D8B41200DAD719D085EC0BF00009D9
:10142600D8A4FBD714C0F6FF15C0F7FFF86A070E5D
:10143600F76403D00800F55005D0F6CFE9FFF7CFE3
:10144600EAFFEF5047EC0BF0144A152A14C0F6FFDA
:1014560015C0F7FFF86A070EF76403D00800F550C9
:1014660005D0F6CFE9FFF7CFEAFFEF500009D8B471
:101476001200D3D7180E2C18D8A404D0492A000E6F
:101486002C6E1200020E4818D8A408D01C0E49185B
:10149600D8A404D0482A010E496E12000C0E481832
:1014A600D8A40BD01E0E4918D8A407D0434A442A04
:1014B600010E486E010E496E12001E0E4918D8A480
:1014C6001200482A010E496E1200000E186E000E18
:1014D600176E14501510D8B41CD0010E166E04D019
:1014E600D89014361536162A15AEFAD7D890173670
:1014F60018361450125C15501358D8A005D0145045
:10150600125E1550135A1780D89015321432162EC3
:10151600EDD717C012F018C013F01200166EF00EB9
:101526009316F00E81161650136E146A138E040E5F
:10153600156E143414321332152EFBD713500F0BBD
:1015460081128A9C8A9A51EC0CF08A8851EC0CF034
:101556008A98F00E811616500F0B811251EC0CF082
:101566008A8851EC0CF08A980F0E931212003A0EEC
:10157600126E000E136E000E156E050E146EAFEC95
:1015860008F012C022F013C023F023501F6E22C0B1
:1015960020F01F503F18D8A406D020504018D8A4D9
:1015A60002D0010E01D0000E216E2104D8A403D072
:1015B600040E386E1200050E386E120011D0BAEC09
:1015C6000AF012008BEC06F01200A2EC0BF01200EF
:1015D600050E08EC0CF01200150E08EC0CF01200CB
:1015E6003850000AD8B41200010AD8B4E8D7030A62
:1015F600D8B4E8D7010AD8B4E8D7070AD8B4E8D7E8
:10160600010AD8A41200E8D71B501C10D8B418D071
:10161600010E1D6E04D0D8901B361C361D2A1CAE3A
:10162600FAD71B50195C1C501A58D8A004D01B506E
:10163600195E1C501A5AD8901C321B321D2EF1D737
:1016460019C019F01AC01AF0120083A012000A0E6F
:10165600136E220E126EA10EE82EFED7122EFCD7A6
:10166600132EFAD700F0414A422A42BE0AD042500F
:1016760004E1090E415CD8A004D0000E426E010EB2
:10168600416E83A01200FDD7136EF00E9316F00E76
:10169600811613380F0B0F0B81128A8A8A9C51EC24
:1016A6000CF08A8851EC0CF08A98F00E81161350D3
:1016B6000F0B811251EC0CF08A8851EC0CF08A98D1
:1016C6000F0E93121200136EF00E9316F00E811683
:1016D60013380F0B0F0B81128A9C8A9A51EC0CF06F
:1016E6008A8851EC0CF08A98F00E811613500F0B75
:1016F600811251EC0CF08A8851EC0CF08A980F0E8E
:10170600931212008A8C8A9A51EC0CF08A8851EC5A
:101716000CF081A60AD08A9851EC0CF08A8851EC1C
:101726000CF08A988A9C010E12008A9851EC0CF0F3
:101736008A8851EC0CF08A988A9C000E1200000EE2
:10174600136E000E126E13BE06D0135011E1070E73
:10175600125CD8B00DD09EA8FED7960E1224D96E74
:10176600000E1320DA6EDF50AD6E124A132AEBD745
:10177600000E386E120047502C18D8A409D04650D7
:101786002D18D8A405D03450D8A402D08080352A8C
:101796000E0E356412008090010E346E1200000E9B
:1017A60091EC0AF04B0E146E080E156E0FEC0AF053
:1017B600400E91EC0AF04B0E146E080E156E0FECEF
:1017C6000AF01200000E91EC0AF017C014F018C0CF
:1017D60015F00FEC0AF0400E91EC0AF019C014F067
:1017E6001AC015F00FEC0AF012003C0E2E18D8A401
:1017F60004D02D2A000E2E6E12003C0E2D18D8A4F1
:1018060012002C2A000E2D6E1200126E9EA8FED714
:1018160012C0ADFF050E1218D8A403D0020E386E02
:101826001200000E386E1200280E18EC09F085EC36
:101836000BF00009D8A4FBD7060E66EC0BF00C0ED5
:1018460066EC0BF01200136E0D0E126EFC0EE82EF7
:10185600FED7122EFCD7132EF7D71200126EC80E23
:1018660000D0E82EFDD7122EFAD71200126E030E04
:10187600E82EFED700F0122EFAD712000100E2077A
:10188600010A050604010201647374717173730A17
:0318960028A03B4C
:10189A00B40E31EC0CF01200780E39EC0CF0120098
:020000040020DA
:08000000FFFFFFFFFFFFFFFF00
:020000040030CA
:0E00000000051F1FFF8185FF0FC00FE00F409E
:00000001FF
