:0400000080EF00F09D
:100018004D80D8CF01F0E8CF02F0E0CF03F0FACF5F
:1000280004F0FBCF05F0E9CF06F0EACF07F0E1CF07
:1000380008F0E2CF09F0D9CF0AF0DACF0BF0F3CF0E
:100048000CF0F4CF0DF0F6CF0EF0F7CF0FF0F8CF9D
:1000580010F0F5CF11F0F2A40ED06D0ED76E750E1C
:10006800D66EF294302A140E3018D8A404D02F2A51
:10007800000E306E2C2A9EAA1BD09EAAFED73A0EDE
:100088002724D96E000E2820DA6EAECFDFFF274A6C
:10009800282A28BE0DD0285004E1070E275CD8A0D6
:1000A80007D09E9A000E286E000E276E010E316E44
:1000B80011C0F5FF10C0F8FF0FC0F7FF0EC0F6FF24
:1000C8000DC0F4FF0CC0F3FF0BC0DAFF0AC0D9FF64
:1000D80009C0E2FF08C0E1FF07C0EAFF06C0E9FF68
:1000E80005C0FBFF04C0FAFF03C0E0FF02C0E8FF41
:0C00F80001C0D8FF4D90100093EF09F0FC
:100800000001000A006400E80310272020202020B7
:1008100020202020202020202020200048454C4C53
:100820004F574F524C440025642F25642F256400F8
:1008300025643A25643A256400544553544565724D
:1008400000486F72613A2000446174613A200041AF
:100850006C61726D650025642E256400256420435B
:100860000000E8D0330E126E000E136E3A0E146EB6
:10087000000E156E14501510D8A4200E166E000E22
:10088000186E010E176EEBEC07F0340E126E000EB0
:10089000136E3B0E146E000E156E14501510D8A476
:1008A000200E166E000E186E010E176EEBEC07F0A0
:1008B0004BD0350E126E000E136E4C0E146E000EE1
:1008C000156E14501510D8A4200E166E000E186E5A
:1008D000010E176EEBEC07F0360E126E000E136E63
:1008E0004B0E146E000E156E14501510D8A4200E69
:1008F000166E000E186E010E176EEBEC07F0370E39
:10090000126E000E136E000E146E000E156E000EA9
:10091000166E000E186E010E176EEBEC07F091D0FC
:100920002EC035F02DC036F02CC037F08AD049C02B
:1009300035F048C036F044C037F083D047C035F0BA
:1009400046C036F037687DD03B50300AD8B4B1D7B6
:10095000010AD8B4E5D7030AD8B4E9D7010AD8B454
:10096000EDD76FD0000E0001676F000E666F0001BB
:1009700067BF08D0000167514FE1050E0001665DB9
:10098000D8B04AD0330E00016625126E000E000169
:100990006721136E3A0E000166250001646F000E98
:1009A000000167210001656F64C014F065C015F097
:1009B00014501510D8A4200E166E000E186E010EDD
:1009C000176EEBEC07F00001664B672BD0D73C505D
:1009D000D00F4C6E3D50D00F4B6E33D03C50D00FEB
:1009E0002E6E3D50D00F2D6E3E50D00F2C6E29D064
:1009F0003C50D00F496E3D50D00F486ED00E3E2473
:100A0000446E456AFF0E45221CD03C50D00F476E05
:100A10003D50D00F466E15D03B50300AD8B4D7D7D2
:100A2000010AD8B4DBD7030AD8B4E2D7010AD8B494
:100A3000ECD707D03A50310AD8B414D7030AD8B447
:100A400091D7F7EC06F01200640E00016A6F000EF9
:100A500000016B6FA8D0250E00017019D8B40AD020
:100A600060C0D9FF61C0DAFF70C0DFFF0001604BDA
:100A7000612B99D0000E00016C6F62C0F6FF63C05D
:100A8000F7FF0001624B632BF86A0800F5CF70F0A6
:100A900000017051000AD8B495D0640AD8B403D0CC
:100AA0000D0AD8A480D06AC0D9FF6BC0DAFFDECFB0
:100AB0006EF0DDCF6FF0020E00016A27000E6B238F
:100AC00000016FAF08D0030E00016C1300016E6DC2
:100AD0006F1FD8B06F2B010E0001706F050E000163
:100AE0007019D8B419D000017051020D010EF32411
:100AF000F66E080EF420F76EF86A000EF822090070
:100B0000F55000016E5D0900F55000016F59D8A045
:100B100003D00001702BE2D76CC01EF0030E1E162E
:100B2000D8B409D060C0D9FF61C0DAFF2D0EDF6EE6
:100B30000001604B612B70C06DF02FD000016D5132
:100B4000020D010EF324F66E080EF420F76EF86A1B
:100B5000000EF8220900F5CF14F00A00F5CF15F0C9
:100B60006EC012F06FC013F0F4EC08F012C019F070
:100B700013C01AF0000E1C6E0A0E1B6EB4EC09F0C6
:100B80001950300F0001706F60C0D9FF61C0DAFFEB
:100B900070C0DFFF0001604B612B00016D07000199
:100BA0006D29D8A4CBD762C0F6FF63C0F7FF000160
:100BB000624B632BF86A0800F5CF70F000017051AA
:100BC000D8A449D760C0D9FF61C0DAFF000EDF6E3C
:100BD00012001D681E6814501510D8A405D01D1CE5
:100BE000126E1E1C136E1200000E1A6E12C0D9FF78
:100BF00013C0DAFFDF50166E16501B6E1C6A124AC5
:100C0000132A070E1A6401D028D0010E1B14166E89
:100C1000000E1C14176E010E1D14186E000E1E140B
:100C2000196E1650181A1750191A18501910D8B4EE
:100C30000CD0D8901E30176E1D30166E080E161888
:100C40001D6E840E17181E6E03D0D8901E321D32F2
:100C50001A2AD8901C321B32D4D71406D8A01506F5
:100C600014501510D8A4C0D71D1E1E1E1DC01BF089
:100C70001EC01CF01BC016F01CC017F017C016F0E9
:100C8000176A16501DC018F01EC019F018C019F0D0
:100C9000186A18101D6E19501E6E1DC012F01EC06D
:100CA00013F01200000E1DEC09F0410E146E080E38
:100CB000156E1CEC08F0710E0001606F000E000153
:100CC000616F300E0001626F080E0001636F2EC06D
:100CD00064F00001656B2DC066F00001676B2CC0ED
:100CE00068F00001696B24EC05F0710E146E000EC3
:100CF000156E1CEC08F0400E1DEC09F0480E146E49
:100D0000080E156E1CEC08F0710E0001606F000EED
:100D10000001616F270E0001626F080E0001636F12
:100D200049C064F00001656B48C066F00001676B64
:100D300044C068F045C069F024EC05F0710E146EF3
:100D4000000E156E1CEC08F01200176EF00E8116E6
:100D5000F00E9316939C939A93988A9C8A9A8A98F9
:100D6000D6EC0AF0300EF4EC09F0050EB5EC0AF002
:100D7000300EF4EC09F0010EB5EC0AF0320EF4EC92
:100D800009F013EC0AF00009D8A4FBD713EC0AF021
:100D90000009D8A4FBD71750F4EC09F013EC0AF0C3
:100DA0000009D8A4FBD7080EF4EC09F013EC0AF004
:100DB0000009D8A4FBD70F0EF4EC09F013EC0AF0ED
:100DC0000009D8A4FBD7010EF4EC09F013EC0AF0EB
:100DD0000009D8A4FBD7040EF4EC09F013EC0AF0D8
:100DE0000009D8A4FBD7800E1DEC09F012003A0EC2
:100DF000126E000E136E000E156E050E146EE9ECE9
:100E000005F012C062F013C063F0000163510001ED
:100E1000606F62C061F03F0E126E000E136E000133
:100E200060511F6E206A216A1FC014F020C015F0A7
:100E300021C016F0000E186E010E176EEBEC07F0D5
:100E4000400E126E000E136E000161511F6E206A7B
:100E5000216A1FC014F020C015F021C016F0000E4A
:100E6000186E010E176EEBEC07F0030E316E1200D8
:100E70001F6E1F04D8A427D0040E4A18D8A407D088
:100E800074EC0AF0010E4A6E52EC06F012004A04AD
:100E9000D8A407D074EC0AF0020E4A6ECBEC08F02E
:100EA0001200020E4A18D8A407D074EC0AF0030E00
:100EB0004A6EA2EC08F0120074EC0AF0040E4A6EBE
:100EC00046EC09F012004A04D8B452EC06F0020EC7
:100ED0004A18D8B4CBEC08F0030E4A18D8B4A2ECE8
:100EE00008F0040E4A18D8A4120046EC09F01200CB
:100EF00083A21BD00A0E216E220E206EA10EE82EB8
:100F0000FED7202EFCD7212EFAD700F0180E471856
:100F1000D8A403D0000E476E01D0472A000E2A6ED7
:100F2000000E38EC07F083B2FED783A412000A0E3D
:100F3000216E220E206EA10EE82EFED7202EFCD7A9
:100F4000212EFAD700F03C0E4618D8A403D0000E8C
:100F5000466E01D0462A000E2A6E000E38EC07F0CD
:100F600083A41200FDD7D59EF28AF294D59CD59623
:100F7000D580D582D594D59A800ED76E000ED66EC8
:100F8000D58EF28EF28C000E926EA6EC0AF04D0E0B
:100F9000AF6E900EAB6E200EAC6E949C948E9E9AAB
:100FA0009F9A9D8AF28C2F04D8A40DD0000E2F6E2C
:100FB00087EC0AF077EC08F060EC0AF0000E38ECF1
:100FC00007F06DEC09F0020E4A18D8B478EC07F07F
:100FD0004CEC0AF0E8D714C019F015C01AF016C08E
:100FE0001BF012C01CF013C01DF01DD019C0F6FF7D
:100FF0001AC0F7FF1BC0F8FF1CC0D9FF1DC0DAFFE5
:10100000F8BA03D00800F55005D0F6CFE9FFF7CFC6
:10101000EAFFEF50DF6E010E1926000E1A22000EB5
:101020001B221C4A1D2A1706D8A018061728DEE125
:101030001828D8B41200DAD719D013EC0AF0000936
:10104000D8A4FBD714C0F6FF15C0F7FFF86A070E47
:10105000F76403D00800F55005D0F6CFE9FFF7CFCD
:10106000EAFFEF50D5EC09F0144A152A14C0F6FF38
:1010700015C0F7FFF86A070EF76403D00800F550B3
:1010800005D0F6CFE9FFF7CFEAFFEF500009D8B45B
:101090001200D3D73A0E126E000E136E000E156EAC
:1010A000050E146EE9EC05F012C063F013C064F095
:1010B000000164510001606F63C061F00001605184
:1010C0003F18D8A407D0000161514018D8A402D01D
:1010D000010E01D0000E0001626F00016205D8A46C
:1010E00003D0040E316E1200050E316E1200180E80
:1010F0002E18D8A404D0492A000E2E6E1200020E1B
:101100004818D8A408D01C0E4918D8A404D0482ADE
:10111000010E496E12000C0E4818D8A40BD01E0EFA
:101120004918D8A407D0444A452A010E486E010E3A
:10113000496E12001E0E4918D8A41200482A010E4A
:10114000496E1200030E1DEC09F01C0E146E080E01
:10115000156E1CEC08F0450E1DEC09F0710E000137
:10116000606F000E0001616F560E0001626F080E85
:101170000001636F4CC064F00001656B4BC066F00A
:101180000001676B24EC05F0710E146E000E156EF5
:101190001CEC08F01200050E1DEC09F04F0E146E49
:1011A000080E156E1CEC08F0460E1DEC09F0710ED1
:1011B0000001606F000E0001616F330E0001626F6D
:1011C000080E0001636F47C064F00001656B46C004
:1011D00066F00001676B24EC05F0710E146E000ED2
:1011E000156E1CEC08F01200000E186E000E176E43
:1011F00014501510D8B41CD0010E166E04D0D8901F
:1012000014361536162A15AEFAD7D8901736183672
:101210001450125C15501358D8A005D01450125E0B
:101220001550135A1780D89015321432162EEDD758
:1012300017C012F018C013F01200166EF00E9316BD
:10124000F00E81161650136E146A138E040E156E6E
:10125000143414321332152EFBD713500F0B811296
:101260008A9C8A9ADAEC0AF08A88DAEC0AF08A9880
:10127000F00E811616500F0B8112DAEC0AF08A88F4
:10128000DAEC0AF08A980F0E93121200030E1DEC8E
:1012900009F0390E146E080E156E1CEC08F0460E9F
:1012A0001DEC09F0710E0001606F000E0001616F0E
:1012B0005C0E0001626F080E0001636F22C064F0D3
:1012C00023C065F024C066F024EC05F0710E146EA6
:1012D000000E156E1CEC08F0120011D04AEC08F05C
:1012E000120031EC04F0120030EC0AF01200050E8E
:1012F00097EC0AF01200150E97EC0AF0120031502C
:10130000000AD8B41200010AD8B4E8D7030AD8B446
:10131000E8D7010AD8B4E8D7070AD8B4E8D7010A51
:10132000D8A41200E8D7A00EF66E150EF76E000EC8
:10133000F86E00EE41F010EE0CF00900F5CFEEFF74
:10134000E550E150FAE100EE71F0100EEE6AE806A9
:10135000FDE100EE22F01F0EEE6AE806FDE14D9081
:101360004D920001B3EF07F01B501C10D8B418D0F9
:10137000010E1D6E04D0D8901B361C361D2A1CAEE3
:10138000FAD71B50195C1C501A58D8A004D01B5017
:10139000195E1C501A5AD8901C321B321D2EF1D7E0
:1013A00019C019F01AC01AF01200136EF00E93163D
:1013B000F00E811613380F0B0F0B81128A8A8A9C4C
:1013C000DAEC0AF08A88DAEC0AF08A98F00E8116D4
:1013D00013500F0B8112DAEC0AF08A88DAEC0AF06B
:1013E0008A980F0E93121200136EF00E9316F00EE1
:1013F000811613380F0B0F0B81128A9C8A9ADAEC34
:101400000AF08A88DAEC0AF08A98F00E81161350F6
:101410000F0B8112DAEC0AF08A88DAEC0AF08A986B
:101420000F0E931212008A8C8A9ADAEC0AF08A88DC
:10143000DAEC0AF081A60AD08A98DAEC0AF08A88F7
:10144000DAEC0AF08A988A9C010E12008A98DAEC8B
:101450000AF08A88DAEC0AF08A988A9C000E120058
:10146000000E136E000E126E13BE06D0135011E163
:10147000070E125CD8B00DD09EA8FED7330E1224F2
:10148000D96E000E1320DA6EDF50AD6E124A132AA9
:10149000EBD7000E316E120083A012000A0E216EEF
:1014A000220E206EA10EE82EFED7202EFCD7212E74
:1014B000FAD700F0010E38EC07F083A01200FDD738
:1014C00047502E18D8A409D046502D18D8A405D0BE
:1014D0002A50D8A402D080802B2A0E0E2B64120032
:1014E0008090010E2A6E1200000E1DEC09F00B0E0A
:1014F000146E080E156E1CEC08F0400E1DEC09F081
:101500000B0E146E080E156E1CEC08F012003C0E4B
:101510002C18D8A404D02D2A000E2C6E12003C0EDC
:101520002D18D8A412002E2A000E2D6E1200126E55
:101530009EA8FED712C0ADFF050E1218D8A403D086
:10154000020E316E1200000E316E1200280EA5EC54
:1015500006F013EC0AF00009D8A4FBD7060EF4EC51
:1015600009F00C0EF4EC09F01200136E0D0E126E61
:10157000FC0EE82EFED7122EFCD7132EF7D7120042
:10158000126EC80E00D0E82EFDD7122EFAD7120028
:10159000126E030EE82EFED700F0122EFAD71200BC
:1015A00028A03BE2070A050604010201B40EC0ECC4
:0C15B0000AF01200780EC8EC0AF01200DD
:020000040020DA
:08000000FFFFFFFFFFFFFFFF00
:020000040030CA
:0E00000000051F1FFF8185FF0FC00FE00F409E
:00000001FF
