:0400000080EF00F09D
:100018004E80D8CF01F0E8CF02F0E0CF03F0FACF5E
:1000280004F0FBCF05F0E9CF06F0EACF07F0E1CF07
:1000380008F0E2CF09F0D9CF0AF0DACF0BF0F3CF0E
:100048000CF0F4CF0DF0F6CF0EF0F7CF0FF0F8CF9D
:1000580010F0F5CF11F0F2A40ED06D0ED76E750E1C
:10006800D66EF2943B2A140E3B18D8A404D03A2A30
:10007800000E3B6E302A9EAA1BD09EAAFED73E0ECB
:100088003524D96E000E3620DA6EAECFDFFF354A42
:10009800362A36BE0DD0365004E1070E355CD8A09E
:1000A80007D09E9A000E366E000E356E010E3C6E1D
:1000B80011C0F5FF10C0F8FF0FC0F7FF0EC0F6FF24
:1000C8000DC0F4FF0CC0F3FF0BC0DAFF0AC0D9FF64
:1000D80009C0E2FF08C0E1FF07C0EAFF06C0E9FF68
:1000E80005C0FBFF04C0FAFF03C0E0FF02C0E8FF41
:0C00F80001C0D8FF4E9010008FEF07F001
:100800000001000A006400E8031027256420256425
:10081000202564202564202564202564202564008B
:100820004469612064612073656D616E6100436F8E
:100830006E66696775726163616F0025642F256458
:100840002F25640025643A25643A256400544553F5
:100850005445657200486F72613A200044617461CA
:100860003A20002564204300486F72610000DED00A
:100870007E0E126E000E136E3E0E146E000E156E7E
:1008800014501510D8A4200E166E000E186E010E0E
:10089000176EC0EC07F07F0E126E000E136E3F0E47
:1008A000146E000E156E14501510D8A4200E166E7E
:1008B000000E186E010E176EC0EC07F04CD0800EC3
:1008C000126E000E136E4D0E146E000E156E145047
:1008D0001510D8A4200E166E000E186E010E176E9D
:1008E000C0EC07F0810E126E000E136E4C0E146EEB
:1008F000000E156E14501510D8A4200E166E000EA2
:10090000186E010E176EC0EC07F0820E126E000E0C
:10091000136E000E146E000E156E000E166E000E95
:10092000186E010E176EC0EC07F087D02EC080F055
:100930002FC081F030C082F080D04AC080F049C022
:1009400081F045C082F079D048C080F047C081F086
:100950000001826972D03F50300AD8B4B0D7010A82
:10096000D8B4E4D7030AD8B4E8D7010AD8B4ECD78E
:1009700064D0000E296E000E286E29BE06D02950C4
:1009800047E1050E285CD8B043D07E0E2824126EB5
:10099000000E2920136E3E0E2824266E000E2920FC
:1009A000276E26C014F027C015F014501510D8A4D7
:1009B000200E166E000E186E010E176EC0EC07F0BA
:1009C000284A292ADAD74050D00F4D6E4150D00F17
:1009D0004C6E33D04050D00F2E6E4150D00F2F6E42
:1009E0004250D00F306E29D04050D00F4A6E415047
:1009F000D00F496ED00E4224456E466AFF0E462245
:100A00001CD04050D00F486E4150D00F476E15D0CB
:100A10003F50300AD8B4D7D7010AD8B4DBD7030A7D
:100A2000D8B4E2D7010AD8B4ECD707D03E50310A87
:100A3000D8B41ED7030AD8B49CD717EC07F012001D
:100A4000890E1F6E000E206E97D0250E2518D8B483
:100A50000AD085C0D9FF86C0DAFF25C0DFFF0001BC
:100A6000854B862B89D0000E216E87C0F6FF88C08B
:100A7000F7FF0001874B882BF86A0800F5CF25F0B7
:100A80002550000AD8B486D0640AD8B403D00D0A21
:100A9000D8A472D01FC0D9FF20C0DAFFDECF23F068
:100AA000DDCF24F0020E1F26000E202224AE06D039
:100AB000030E2112236C241ED8B0242A010E256EA9
:100AC000050E2518D8B415D02550020D010EF324BB
:100AD000F66E080EF420F76EF86A000EF822090090
:100AE000F550235C0900F5502458D8A002D0252ADF
:100AF000E7D721C01EF0030E1E16D8B409D085C05A
:100B0000D9FF86C0DAFF2D0EDF6E0001854B862BE4
:100B100025C022F02DD02250020D010EF324F66ED6
:100B2000080EF420F76EF86A000EF8220900F5CFDF
:100B300014F00A00F5CF15F023C012F024C013F012
:100B40004AEC08F012C019F013C01AF0000E1C6E27
:100B50000A0E1B6EE9EC08F01950300F256E85C0A7
:100B6000D9FF86C0DAFF25C0DFFF0001854B862B49
:100B700022062228D8A4CFD787C0F6FF88C0F7FF67
:100B80000001874B882BF86A0800F5CF25F0255027
:100B9000D8A45BD785C0D9FF86C0DAFF000EDF6E10
:100BA00012001D681E6814501510D8A405D01D1C15
:100BB000126E1E1C136E1200000E1C6E12C0D9FFA6
:100BC00013C0DAFFDF50166E16501A6E1B6A124AF7
:100BD000132A070E1C6401D028D0010E1A14166EB9
:100BE000000E1B14176E010E1D14186E000E1E143D
:100BF000196E1650181A1750191A18501910D8B41F
:100C00000CD0D8901E30176E1D30166E080E1618B8
:100C10001D6E840E17181E6E03D0D8901E321D3222
:100C20001C2AD8901B321A32D4D71406D8A0150625
:100C300014501510D8A4C0D71D1E1E1E1DC01AF0BA
:100C40001EC01BF01AC016F01BC017F017C016F01C
:100C5000176A16501DC018F01EC019F018C019F000
:100C6000186A18101D6E19501E6E1DC012F01EC09D
:100C700013F01200176EF00E8116F00E9316939C6F
:100C8000939A93988A9C8A9A8A984BEC0AF0300E31
:100C900029EC09F0050E26EC0AF0300E29EC09F0DB
:100CA000010E26EC0AF0320E29EC09F065EC09F091
:100CB0000009D8A4FBD765EC09F00009D8A4FBD73C
:100CC000175029EC09F065EC09F00009D8A4FBD70E
:100CD000080E29EC09F065EC09F00009D8A4FBD74F
:100CE0000F0E29EC09F065EC09F00009D8A4FBD738
:100CF000010E29EC09F065EC09F00009D8A4FBD736
:100D0000040E29EC09F065EC09F00009D8A4FBD722
:100D1000800E73EC08F01200000E73EC08F06E0EFB
:100D20000001856F000E0001866F0B0E0001876FBA
:100D3000080E0001886F97C089F000018A6B98C087
:100D40008BF000018C6B99C08DF000018E6B9AC006
:100D50008FF00001906B9BC091F00001926B9CC0E2
:100D600093F00001946B9DC095F00001966B20EC10
:100D700005F0400E73EC08F06E0E0001856F000E5A
:100D80000001866F470E0001876F080E0001886F13
:100D90004DC089F000018A6B4CC08BF000018C6B58
:100DA00020EC05F06E0E146E000E156EF1EC07F0DF
:100DB0001200D59EF28AF294D59CD596D580D58224
:100DC000D594D59A800ED76E000ED66ED58EF28E43
:100DD000F28C000E926E17EC0AF04D0EAF6E900E74
:100DE000AB6E200EAC6E949C948E9E9A9F9A9D8AB8
:100DF000F28C000E2E6E000E2F6E000E306E3A0436
:100E0000D8A40DD0000E3A6EF8EC09F01FEC08F0F3
:100E1000E4EC09F0000E48EC09F0C3EC08F0020E17
:100E20004B18D8B454EC07F0D0EC09F0E8D73E0EDC
:100E3000126E000E136E000E156E050E146ED1ECC0
:100E400005F012C024F013C025F02550226E24C0F6
:100E500023F0430E126E000E136E22501F6E206A96
:100E6000216A1FC014F020C015F021C016F0000E3A
:100E7000186E010E176EC0EC07F0440E126E000ED5
:100E8000136E23501F6E206A216A1FC014F020C009
:100E900015F021C016F0000E186E010E176EC0EC92
:100EA00007F0030E3C6E120083A21BD00A0E276EC1
:100EB000220E266EA10EE82EFED7262EFCD7272E58
:100EC000FAD700F0180E4818D8A403D0000E486EC8
:100ED00001D0482A000E386E000E48EC09F083B2AB
:100EE000FED783A412000A0E276E220E266EA10ED4
:100EF000E82EFED7262EFCD7272EFAD700F03C0E80
:100F00004718D8A403D0000E476E01D0472A000E20
:100F1000386E000E48EC09F083A41200FDD7820E53
:100F2000F66E140EF76E000EF86E00EE97F010EEEF
:100F30000BF00900F5CFEEFFE550E150FAE18D0E20
:100F4000F66E140EF76E000EF86E00EE45F010EE21
:100F500009F00900F5CFEEFFE550E150FAE100EEAF
:100F600060F0250EEE6AE806FDE100EE2AF01B0EA9
:100F7000EE6AE806FDE14E904E920001D9EF06F0D0
:100F800014C019F015C01AF016C01BF012C01CF0E6
:100F900013C01DF01DD019C0F6FF1AC0F7FF1BC00B
:100FA000F8FF1CC0D9FF1DC0DAFFF8BA03D0080053
:100FB000F55005D0F6CFE9FFF7CFEAFFEF50DF6E2F
:100FC000010E1926000E1A22000E1B221C4A1D2A91
:100FD0001706D8A018061728DEE11828D8B4120082
:100FE000DAD719D065EC09F00009D8A4FBD714C0F2
:100FF000F6FF15C0F7FFF86A070EF76403D0080084
:10100000F55005D0F6CFE9FFF7CFEAFFEF500AEC35
:1010100009F0144A152A14C0F6FF15C0F7FFF86A44
:10102000070EF76403D00800F55005D0F6CFE9FFAE
:10103000F7CFEAFFEF500009D8B41200D3D7180E4B
:101040002E18D8A404D04A2A000E2E6E1200020ECA
:101050004918D8A408D01C0E4A18D8A404D0492A8C
:10106000010E4A6E12000C0E4918D8A40BD01E0EA9
:101070004A18D8A407D0454A462A010E496E010EE7
:101080004A6E12001E0E4A18D8A41200492A010EF8
:101090004A6E1200000E176E000E166E14501510D8
:1010A000D8B41CD0010E186E04D0D8901436153662
:1010B000182A15AEFAD7D890163617361450125C87
:1010C00015501358D8A005D01450125E1550135A5D
:1010D0001680D89015321432182EEDD716C012F0A3
:1010E00017C013F01200166EF00E9316F00E811654
:1010F0001650136E146A138E040E156E14341432C7
:101100001332152EFBD713500F0B81128A9C8A9A2B
:101110004FEC0AF08A884FEC0AF08A98F00E81169C
:1011200016500F0B81124FEC0AF08A884FEC0AF030
:101130008A980F0E931212003E0E126E000E136E5E
:10114000000E156E050E146ED1EC05F012C022F0E3
:1011500013C023F023501F6E22C020F01F504318ED
:10116000D8A406D020504418D8A402D0010E01D033
:10117000000E216E2104D8A403D0040E3C6E120090
:10118000050E3C6E120011D09CEC08F0120037ECFA
:1011900004F0120082EC09F01200050E08EC0AF0CF
:1011A0001200150E08EC0AF012003C50000AD8B4E8
:1011B0001200010AD8B4E8D7030AD8B4E8D7010A64
:1011C000D8B4E8D7070AD8B4E8D7010AD8A41200DF
:1011D000E8D71B501C10D8B418D0010E1D6E04D0D7
:1011E000D8901B361C361D2A1CAEFAD71B50195C32
:1011F0001C501A58D8A004D01B50195E1C501A5A03
:10120000D8901C321B321D2EF1D719C019F01AC00C
:101210001AF01200136EF00E9316F00E81161338AA
:101220000F0B0F0B81128A8A8A9C4FEC0AF08A8876
:101230004FEC0AF08A98F00E811613500F0B8112B2
:101240004FEC0AF08A884FEC0AF08A980F0E93123E
:101250001200136EF00E9316F00E811613380F0B5A
:101260000F0B81128A9C8A9A4FEC0AF08A884FEC05
:101270000AF08A98F00E811613500F0B81124FEC72
:101280000AF08A884FEC0AF08A980F0E9312120027
:101290004B04D8A409D033503410D8A403D0B7ECF1
:1012A00009F002D09EEC09F0020E4B18D8B48CEC79
:1012B00006F0030E4B18D8B49EEC09F0040E4B1840
:1012C000D8A412009EEC09F012008A8C8A9A4FEC86
:1012D0000AF08A884FEC0AF081A60AD08A984FEC6F
:1012E0000AF08A884FEC0AF08A988A9C010E120054
:1012F0008A984FEC0AF08A884FEC0AF08A988A9C08
:10130000000E1200000E136E000E126E13BE06D0F9
:10131000135011E1070E125CD8B00DD09EA8FED775
:101320007E0E1224D96E000E1320DA6EDF50AD6EE1
:10133000124A132AEBD7000E3C6E1200000E73EC1B
:1013400008F02E0E146E080E156EF1EC07F0400E2C
:1013500073EC08F0680E146E080E156EF1EC07F0D1
:101360006E0E146E000E156EF1EC07F01200000EFA
:1013700073EC08F02E0E146E080E156EF1EC07F0EB
:10138000400E73EC08F0200E146E080E156EF1EC92
:1013900007F06E0E146E000E156EF1EC07F01200E1
:1013A00083A012000A0E276E220E266EA10EE82ED2
:1013B000FED7262EFCD7272EFAD700F0010E48ECD8
:1013C00009F083A01200FDD748502E18D8A409D0E8
:1013D00047502F18D8A405D03850D8A402D0808008
:1013E000392A0E0E396412008090010E386E1200F8
:1013F0003C0E3018D8A404D02F2A000E306E1200F4
:101400003C0E2F18D8A412002E2A000E2F6E1200A8
:10141000126E9EA8FED712C0ADFF050E1218D8A4FA
:1014200003D0020E3C6E1200000E3C6E1200280E1D
:101430003AEC06F065EC09F00009D8A4FBD7060EDB
:1014400029EC09F00C0E29EC09F01200136E0D0EB8
:10145000126EFC0EE82EFED7122EFCD7132EF7D7F5
:101460001200126EC80E00D0E82EFDD7122EFAD749
:101470001200126E030EE82EFED700F0122EFAD7DD
:101480001200647374717173730A28A03BE2070A37
:10149000050604020201B40E31EC0AF01200780EC7
:0614A00039EC0AF0120015
:020000040020DA
:08000000FFFFFFFFFFFFFFFF00
:020000040030CA
:0E00000000051F1FFF8185FF0FC00FE00F409E
:00000001FF
