:0400000080EF00F09D
:100018004D80D8CF01F0E8CF02F0E0CF03F0FACF5F
:1000280004F0FBCF05F0E9CF06F0EACF07F0E1CF07
:1000380008F0E2CF09F0D9CF0AF0DACF0BF0F3CF0E
:100048000CF0F4CF0DF0F6CF0EF0F7CF0FF0F8CF9D
:1000580010F0F5CF11F0F2A40ED06D0ED76E750E1C
:10006800D66EF294372A140E3718D8A404D0362A3C
:10007800000E376E2E2A9EAA1BD09EAAFED73A0ED5
:100088003124D96E000E3220DA6EAECFDFFF314A4E
:10009800322A32BE0DD0325004E1070E315CD8A0AE
:1000A80007D09E9A000E326E000E316E010E386E29
:1000B80011C0F5FF10C0F8FF0FC0F7FF0EC0F6FF24
:1000C8000DC0F4FF0CC0F3FF0BC0DAFF0AC0D9FF64
:1000D80009C0E2FF08C0E1FF07C0EAFF06C0E9FF68
:1000E80005C0FBFF04C0FAFF03C0E0FF02C0E8FF41
:0C00F80001C0D8FF4D9010008DEF08F003
:100800000001000A006400E8031027662A20686FD0
:1008100072615F6C6967612F686F72615F64657395
:100820006C2E005B25632025632025632025632033
:1008300025632025632025635D00662A206F6E2FC7
:100840006F66665F73656D2F686F725F72656C00AF
:10085000486F726172696F203A2025643A25643AC4
:10086000256400434F4E46494755524143414F206E
:100870003A2000662A2020202020202020256420E5
:100880005700434F4E53554D4F203A2000414C41A5
:10089000524D45203A2000446566616C746F737355
:1008A0000074656C61202569000005D110EC0BF027
:1008B000860E00019D6F000E00019E6F230E000149
:1008C0009F6F080E0001A06FB1C0A1F00001A26BE4
:1008D000B2C0A3F00001A46BB3C0A5F00001A66BE9
:1008E000B4C0A7F00001A86BB5C0A9F00001AA6BC5
:1008F000B6C0ABF00001AC6BB7C0ADF00001AE6BA1
:100900005AEC06F0760E00019D6F000E00019E6FFE
:10091000500E00019F6F080E0001A06F2CC0A1F0C7
:100920000001A26B2DC0A3F00001A46B2EC0A5F0A6
:100930000001A66B5AEC06F0860E176E000E186EBC
:10094000760E196E000E1A6EB3EC0AF0120010EC5F
:100950000BF0860E00019D6F000E00019E6F820E4F
:1009600000019F6F080E0001A06F5AEC06F0760E92
:1009700000019D6F000E00019E6F730E00019F6FBE
:10098000080E0001A06F4950040D000EF324D96E2B
:10099000010EF420DA6EDECFA1F0DDCFA2F05AEC2A
:1009A00006F0860E176E000E186E760E196E000E8B
:1009B0001A6EB3EC0AF0120010EC0BF0860E000178
:1009C0009D6F000E00019E6F630E00019F6F080E69
:1009D0000001A06F5AEC06F0760E00019D6F000E2C
:1009E00000019E6F3A0E00019F6F080E0001A06F7C
:1009F0005AEC06F0860E176E000E186E760E196E03
:100A0000000E1A6EB3EC0AF0120010EC0BF0860E1A
:100A100000019D6F000E00019E6F8D0E00019F6F03
:100A2000080E0001A06F5AEC06F0760E00019D6FD3
:100A3000000E00019E6F0B0E00019F6F080E00015B
:100A4000A06F5AEC06F0860E176E000E186E760E2A
:100A5000196E000E1A6EB3EC0AF0120010EC0BF0D7
:100A6000860E00019D6F000E00019E6F970E000123
:100A70009F6F080E0001A06F5AEC06F0760E000181
:100A80009D6F000E00019E6FA10E00019F6F080E6A
:100A90000001A06F41C0A1F042C0A2F05AEC06F0E4
:100AA000860E176E000E186E760E196E000E1A6EF8
:100AB000B3EC0AF0120041C026F042C027F02750E4
:100AC000000AD8A4CBD72650010AD8B4EFD6030A1F
:100AD000D8B43DD7010AD8B46FD7070AD8B495D790
:100AE000BDD7DED0960E126E000E136E3A0E146E47
:100AF000000E156E14501510D8A4200E166E000EA0
:100B0000186E010E176EC4EC08F0970E126E000EF0
:100B1000136E3B0E146E000E156E14501510D8A4F3
:100B2000200E166E000E186E010E176EC4EC08F043
:100B30004CD0980E126E000E136E4C0E146E000EFA
:100B4000156E14501510D8A4200E166E000E186ED7
:100B5000010E176EC4EC08F0990E126E000E136EA3
:100B60004B0E146E000E156E14501510D8A4200EE6
:100B7000166E000E186E010E176EC4EC08F09A0E79
:100B8000126E000E136E000E146E000E156E000E27
:100B9000166E000E186E010E176EC4EC08F087D0AA
:100BA0002CC098F02DC099F02EC09AF080D049C08A
:100BB00098F048C099F043C09AF079D047C098F0B7
:100BC00046C099F000019A6972D03B50300AD8B4FF
:100BD000B0D7010AD8B4E4D7030AD8B4E8D7010AD9
:100BE000D8B4ECD764D0000E296E000E286E29BE52
:100BF00006D0295047E1050E285CD8B043D0960EA8
:100C00002824126E000E2920136E3A0E2824266E18
:100C1000000E2920276E26C014F027C015F01450AE
:100C20001510D8A4200E166E000E186E010E176E49
:100C3000C4EC08F0284A292ADAD73C50D00F4C6E71
:100C40003D50D00F4B6E33D03C50D00F2C6E3D50EA
:100C5000D00F2D6E3E50D00F2E6E29D03C50D00FAD
:100C6000496E3D50D00F486ED00E3E24436E446A0C
:100C7000FF0E44221CD03C50D00F476E3D50D00F89
:100C8000466E15D03B50300AD8B4D7D7010AD8B435
:100C9000DBD7030AD8B4E2D7010AD8B4ECD707D01F
:100CA0003A50310AD8B41ED7030AD8B49CD750ECB6
:100CB00008F01200A10E216E000E226EA7D0250EA4
:100CC0002518D8B405D011D000019D4B9E2B9ED085
:100CD000000E1F6E11D021C0D9FF22C0DAFFDF50F5
:100CE000256E020E2126000E22229DC0D9FF9EC035
:100CF000DAFF25C0DFFFE8D79FC0F6FFA0C0F7FFEF
:100D000000019F4BA02BF86A0800F5CF25F0255075
:100D1000000AD8B489D0630AD8B4DDD7070AD8B49A
:100D200003D00D0AD8A4E1D721C0D9FF22C0DAFF31
:100D3000DECF23F0DDCF24F0020E2126000E22228A
:100D400024AE06D0030E1F12236C241ED8B0242A12
:100D5000010E256E050E2518D8B415D02550020DAC
:100D6000010EF324F66E080EF420F76EF86A000EFA
:100D7000F8220900F550235C0900F5502458D8A04A
:100D800002D0252AE7D71FC01EF0030E1E16D8B4C6
:100D900009D09DC0D9FF9EC0DAFF2D0EDF6E000185
:100DA0009D4B9E2B25C020F02DD02050020D010E12
:100DB000F324F66E080EF420F76EF86A000EF8229F
:100DC0000900F5CF14F00A00F5CF15F023C012F09A
:100DD00024C013F020EC09F012C019F013C01AF06F
:100DE000000E1C6E0A0E1B6EE0EC09F01950300F5D
:100DF000256E9DC0D9FF9EC0DAFF25C0DFFF000130
:100E00009D4B9E2B20062028D8A4CFD79FC0F6FF4D
:100E1000A0C0F7FF00019F4BA02BF86A0800F5CF98
:100E200025F02550D8A44BD79DC0D9FF9EC0DAFF2E
:100E3000000EDF6E1200D59EF28AF294D59CD596F4
:100E4000D580D582D594D59A800ED76E000ED66EF9
:100E5000D58EF28EF28C000E926EC3EC0AF04D0E1F
:100E6000AF6E900EAB6E200EAC6E949C948E9E9ADC
:100E70009F9A9D8AF28C000E2C6E000E2D6E000E35
:100E80002E6E000E0001B06F010EAF6F0001B0BFFB
:100E900008D00001B05137E11F0E0001AF5DD8B09E
:100EA00032D0000E2A6E010E2B6ED8900001AF35A5
:100EB000D96E0001B035DA6ED890D936DA362A50BC
:100EC000D9262B50DA22000EDE6E000EDD6EAFC08A
:100ED0002AF0B0C02BF0D8902A362B36D8902A367C
:100EE0002B36020E2A26000E2B22000E2A24D96E43
:100EF000010E2B20DA6E000EDE6E000EDD6E00019C
:100F0000AF4BB02BC3D73604D8A40CD0000E366E2E
:100F1000A3EC0AF0F5EC08F08FEC0AF099EC09F07C
:100F200055EC04F0BFEC09F0EED71D681E681450B4
:100F30001510D8A405D01D1C126E1E1C136E1200B5
:100F4000000E1A6E12C0D9FF13C0DAFFDF50166E02
:100F500016501B6E1C6A124A132A070E1A6401D01F
:100F600028D0010E1B14166E000E1C14176E010EF5
:100F70001D14186E000E1E14196E1650181A1750F4
:100F8000191A18501910D8B40CD0D8901E30176EFA
:100F90001D30166E080E16181D6E840E17181E6E64
:100FA00003D0D8901E321D321A2AD8901C321B3220
:100FB000D4D71406D8A0150614501510D8A4C0D73D
:100FC0001D1E1E1E1DC01BF01EC01CF01BC016F0F7
:100FD0001CC017F017C016F0176A16501DC018F085
:100FE0001EC019F018C019F0186A18101D6E19509B
:100FF0001E6E1DC012F01EC013F01200176EF00E10
:101000008116F00E9316939C939A93988A9C8A9AD1
:101010008A9808EC0BF0300E01EC0AF0050EE1ECBA
:101020000AF0300E01EC0AF0010EE1EC0AF0320E8B
:1010300001EC0AF03FEC0AF00009D8A4FBD73FEC22
:101040000AF00009D8A4FBD7175001EC0AF03FECD6
:101050000AF00009D8A4FBD7080E01EC0AF03FEC17
:101060000AF00009D8A4FBD70F0E01EC0AF03FEC00
:101070000AF00009D8A4FBD7010E01EC0AF03FECFE
:101080000AF00009D8A4FBD7040E01EC0AF03FECEB
:101090000AF00009D8A4FBD7800E49EC09F0120031
:1010A0003A0E126E000E136E000E156E050E146EC3
:1010B00095EC07F012C024F013C025F02550226EE5
:1010C00024C023F03F0E126E000E136E22501F6ECE
:1010D000206A216A1FC014F020C015F021C016F04C
:1010E000000E186E010E176EC4EC08F0400E126E62
:1010F000000E136E23501F6E206A216A1FC014F069
:1011000020C015F021C016F0000E186E010E176EEB
:10111000C4EC08F0030E386E1200040EF66E160EC4
:10112000F76E000EF86E00EEB1F010EE0BF0090055
:10113000F5CFEEFFE550E150FAE1F80EF66E150E30
:10114000F76E000EF86E00EE41F010EE0CF00900A4
:10115000F5CFEEFFE550E150FAE101EE00F0780E38
:10116000EE6AE806FDE100EE60F03D0EEE6AE8068C
:10117000FDE100EE2CF0150EEE6AE806FDE14D9063
:101180004D9200011BEF07F014C019F015C01AF0C2
:1011900016C01BF012C01CF013C01DF01DD019C0EA
:1011A000F6FF1AC0F7FF1BC0F8FF1CC0D9FF1DC017
:1011B000DAFFF8BA03D00800F55005D0F6CFE9FF02
:1011C000F7CFEAFFEF50DF6E010E1926000E1A224C
:1011D000000E1B221C4A1D2A1706D8A01806172825
:1011E000DEE11828D8B41200DAD7180E2C18D8A4CB
:1011F00004D0492A000E2C6E1200020E4818D8A402
:1012000008D01C0E4918D8A404D0482A010E496EF3
:1012100012000C0E4818D8A40BD01E0E4918D8A4E2
:1012200007D0434A442A010E486E010E496E12004F
:101230001E0E4918D8A41200482A010E496E120049
:10124000000E186E000E176E14501510D8B41CD076
:10125000010E166E04D0D89014361536162A15AE27
:10126000FAD7D890173618361450125C1550135808
:10127000D8A005D01450125E1550135A1780D8907C
:1012800015321432162EEDD717C012F018C013F015
:101290001200166EF00E9316F00E81161650136E95
:1012A000146A138E040E156E143414321332152E74
:1012B000FBD713500F0B81128A9C8A9A0CEC0BF00F
:1012C0008A880CEC0BF08A98F00E811616500F0BE2
:1012D00081120CEC0BF08A880CEC0BF08A980F0E44
:1012E000931212003A0E126E000E136E000E156E5F
:1012F000050E146E95EC07F012C022F013C023F017
:1013000023501F6E22C020F01F503F18D8A406D0D3
:1013100020504018D8A402D0010E01D0000E216E3A
:101320002104D8A403D0040E386E1200050E386EC6
:10133000120011D072EC09F0120071EC05F01200ED
:101340005CEC0AF01200050ED2EC0AF01200150E49
:10135000D2EC0AF012003850000AD8B41200010A88
:10136000D8B4E8D7030AD8B4E8D7010AD8B4E8D784
:10137000070AD8B4E8D7010AD8A41200E8D783A096
:1013800012000A0E136E220E126EA10EE82EFED768
:10139000122EFCD7132EFAD700F0415041264250AE
:1013A000422242BE0AD0425004E1050E415CD8A060
:1013B00004D0000E426E010E416E83A01200FDD7D4
:1013C0001B501C10D8B418D0010E1D6E04D0D8903C
:1013D0001B361C361D2A1CAEFAD71B50195C1C503C
:1013E0001A58D8A004D01B50195E1C501A5AD89015
:1013F0001C321B321D2EF1D719C019F01AC01AF079
:101400001200136EF00E9316F00E811613380F0BA8
:101410000F0B81128A9C8A9A0CEC0BF08A880CECD8
:101420000BF08A98F00E811613500F0B81120CEC02
:101430000BF08A880CEC0BF08A980F0E93121200B6
:10144000136EF00E9316F00E811613380F0B0F0B60
:1014500081128A8A8A9C0CEC0BF08A880CEC0BF0C7
:101460008A98F00E811613500F0B81120CEC0BF0C2
:101470008A880CEC0BF08A980F0E931212008A8C5B
:101480008A9A0CEC0BF08A880CEC0BF081A60AD03F
:101490008A980CEC0BF08A880CEC0BF08A988A9CEA
:1014A000010E12008A980CEC0BF08A880CEC0BF001
:1014B0008A988A9C000E1200000E136E000E126EA7
:1014C00013BE06D0135011E1070E125CD8B00DD038
:1014D0009EA8FED7960E1224D96E000E1320DA6E47
:1014E000DF50AD6E124A132AEBD7000E386E120091
:1014F0000ED03FEC0AF00009D8A4FBD714C0D9FFE6
:1015000015C0DAFFDF5020EC0AF0144A152A14C087
:10151000D9FF15C0DAFFDF50D8B41200EAD7475020
:101520002C18D8A409D046502D18D8A405D0345072
:10153000D8A402D08080352A0E0E35641200809027
:10154000010E346E12003C0E2E18D8A404D02D2AA1
:10155000000E2E6E12003C0E2D18D8A412002C2A5C
:10156000000E2D6E120017C014F018C015F078ECA4
:101570000AF0400E49EC09F019C014F01AC015F039
:1015800078EC0AF01200280EFEEC07F03FEC0AF0AF
:101590000009D8A4FBD7060E01EC0AF00C0E01ECF2
:1015A0000AF01200126E9EA8FED712C0ADFF050E03
:1015B0001218D8A403D0020E386E1200000E386E36
:1015C0001200136E0D0E126EFC0EE82EFED7122EB8
:1015D000FCD7132EF7D71200126EC80E00D0E82EDB
:1015E000FDD7122EFAD71200126E030EE82EFED788
:1015F00000F0122EFAD712000100E207010A0506D8
:0F16000004010201647374717173730A28A03BB3
:10161000B40EECEC0AF01200780EF4EC0AF01200B2
:06162000C3EC0AF0120009
:020000040020DA
:08000000FFFFFFFFFFFFFFFF00
:020000040030CA
:0E00000000051F1FFF8185FF0FC00FE00F409E
:00000001FF
